{
  "_format": "hh-sol-artifact-1",
  "contractName": "ClothingSubmission",
  "sourceName": "contracts/ClothingSubmission.sol",
  "abi": [
    {
      "anonymous": false,
      "inputs": [
        {
          "indexed": true,
          "internalType": "address",
          "name": "user",
          "type": "address"
        },
        {
          "indexed": false,
          "internalType": "string",
          "name": "itemName",
          "type": "string"
        },
        {
          "indexed": false,
          "internalType": "string",
          "name": "storeName",
          "type": "string"
        },
        {
          "indexed": false,
          "internalType": "string",
          "name": "fabricName",
          "type": "string"
        }
      ],
      "name": "SubmissionMade",
      "type": "event"
    },
    {
      "inputs": [
        {
          "internalType": "uint256",
          "name": "",
          "type": "uint256"
        }
      ],
      "name": "allSubmissions",
      "outputs": [
        {
          "internalType": "string",
          "name": "itemName",
          "type": "string"
        },
        {
          "internalType": "string",
          "name": "storeName",
          "type": "string"
        },
        {
          "internalType": "string",
          "name": "fabricName",
          "type": "string"
        },
        {
          "internalType": "string",
          "name": "imageUrl",
          "type": "string"
        },
        {
          "internalType": "uint256",
          "name": "numberOfClicks",
          "type": "uint256"
        },
        {
          "internalType": "uint256",
          "name": "tokensRewarded",
          "type": "uint256"
        },
        {
          "internalType": "string",
          "name": "itemDescription",
          "type": "string"
        }
      ],
      "stateMutability": "view",
      "type": "function"
    },
    {
      "inputs": [],
      "name": "getAllSubmissions",
      "outputs": [
        {
          "components": [
            {
              "internalType": "string",
              "name": "itemName",
              "type": "string"
            },
            {
              "internalType": "string",
              "name": "storeName",
              "type": "string"
            },
            {
              "internalType": "string",
              "name": "fabricName",
              "type": "string"
            },
            {
              "internalType": "string",
              "name": "imageUrl",
              "type": "string"
            },
            {
              "internalType": "uint256",
              "name": "numberOfClicks",
              "type": "uint256"
            },
            {
              "internalType": "uint256",
              "name": "tokensRewarded",
              "type": "uint256"
            },
            {
              "internalType": "string",
              "name": "itemDescription",
              "type": "string"
            }
          ],
          "internalType": "struct ClothingSubmission.SubmissionData[]",
          "name": "",
          "type": "tuple[]"
        }
      ],
      "stateMutability": "view",
      "type": "function"
    },
    {
      "inputs": [],
      "name": "getUserSubmissions",
      "outputs": [
        {
          "components": [
            {
              "internalType": "string",
              "name": "itemName",
              "type": "string"
            },
            {
              "internalType": "string",
              "name": "storeName",
              "type": "string"
            },
            {
              "internalType": "string",
              "name": "fabricName",
              "type": "string"
            },
            {
              "internalType": "string",
              "name": "imageUrl",
              "type": "string"
            },
            {
              "internalType": "uint256",
              "name": "numberOfClicks",
              "type": "uint256"
            },
            {
              "internalType": "uint256",
              "name": "tokensRewarded",
              "type": "uint256"
            },
            {
              "internalType": "string",
              "name": "itemDescription",
              "type": "string"
            }
          ],
          "internalType": "struct ClothingSubmission.SubmissionData[]",
          "name": "",
          "type": "tuple[]"
        }
      ],
      "stateMutability": "view",
      "type": "function"
    },
    {
      "inputs": [
        {
          "internalType": "string",
          "name": "itemName",
          "type": "string"
        },
        {
          "internalType": "string",
          "name": "storeName",
          "type": "string"
        },
        {
          "internalType": "string",
          "name": "fabricName",
          "type": "string"
        },
        {
          "internalType": "string",
          "name": "imageUrl",
          "type": "string"
        },
        {
          "internalType": "string",
          "name": "itemDescription",
          "type": "string"
        }
      ],
      "name": "submitPhoto",
      "outputs": [],
      "stateMutability": "nonpayable",
      "type": "function"
    }
  ],
  "bytecode": "0x608060405234801561001057600080fd5b50611118806100206000396000f3fe608060405234801561001057600080fd5b506004361061004c5760003560e01c80635c2494641461005157806362bd983a146100805780637b5e3bdc14610095578063f3344e8a146100aa575b600080fd5b61006461005f366004610c1a565b6100b2565b6040516100779796959493929190610c79565b60405180910390f35b6100886103ac565b6040516100779190610cf4565b6100a86100a3366004610e84565b6106f9565b005b6100886108cd565b600181815481106100c257600080fd5b90600052602060002090600702016000915090508060000180546100e590610f56565b80601f016020809104026020016040519081016040528092919081815260200182805461011190610f56565b801561015e5780601f106101335761010080835404028352916020019161015e565b820191906000526020600020905b81548152906001019060200180831161014157829003601f168201915b50505050509080600101805461017390610f56565b80601f016020809104026020016040519081016040528092919081815260200182805461019f90610f56565b80156101ec5780601f106101c1576101008083540402835291602001916101ec565b820191906000526020600020905b8154815290600101906020018083116101cf57829003601f168201915b50505050509080600201805461020190610f56565b80601f016020809104026020016040519081016040528092919081815260200182805461022d90610f56565b801561027a5780601f1061024f5761010080835404028352916020019161027a565b820191906000526020600020905b81548152906001019060200180831161025d57829003601f168201915b50505050509080600301805461028f90610f56565b80601f01602080910402602001604051908101604052809291908181526020018280546102bb90610f56565b80156103085780601f106102dd57610100808354040283529160200191610308565b820191906000526020600020905b8154815290600101906020018083116102eb57829003601f168201915b50505050509080600401549080600501549080600601805461032990610f56565b80601f016020809104026020016040519081016040528092919081815260200182805461035590610f56565b80156103a25780601f10610377576101008083540402835291602001916103a2565b820191906000526020600020905b81548152906001019060200180831161038557829003601f168201915b5050505050905087565b60606001805480602002602001604051908101604052809291908181526020016000905b828210156106f057838290600052602060002090600702016040518060e001604052908160008201805461040390610f56565b80601f016020809104026020016040519081016040528092919081815260200182805461042f90610f56565b801561047c5780601f106104515761010080835404028352916020019161047c565b820191906000526020600020905b81548152906001019060200180831161045f57829003601f168201915b5050505050815260200160018201805461049590610f56565b80601f01602080910402602001604051908101604052809291908181526020018280546104c190610f56565b801561050e5780601f106104e35761010080835404028352916020019161050e565b820191906000526020600020905b8154815290600101906020018083116104f157829003601f168201915b5050505050815260200160028201805461052790610f56565b80601f016020809104026020016040519081016040528092919081815260200182805461055390610f56565b80156105a05780601f10610575576101008083540402835291602001916105a0565b820191906000526020600020905b81548152906001019060200180831161058357829003601f168201915b505050505081526020016003820180546105b990610f56565b80601f01602080910402602001604051908101604052809291908181526020018280546105e590610f56565b80156106325780601f1061060757610100808354040283529160200191610632565b820191906000526020600020905b81548152906001019060200180831161061557829003601f168201915b50505050508152602001600482015481526020016005820154815260200160068201805461065f90610f56565b80601f016020809104026020016040519081016040528092919081815260200182805461068b90610f56565b80156106d85780601f106106ad576101008083540402835291602001916106d8565b820191906000526020600020905b8154815290600101906020018083116106bb57829003601f168201915b505050505081525050815260200190600101906103d0565b50505050905090565b6040805160e08101825286815260208082018790528183018690526060820185905260006080830181905260a0830181905260c083018590523381528082529283208054600181018255908452922081519192839260079091029091019081906107639082610fdf565b50602082015160018201906107789082610fdf565b506040820151600282019061078d9082610fdf565b50606082015160038201906107a29082610fdf565b506080820151600482015560a0820151600582015560c082015160068201906107cb9082610fdf565b5050600180548082018255600091909152825183925060079091027fb10e2d527612073b26eecdfd717e6a320cf44b4afac2b0732d9fcbe2b7fa0cf6019081906108159082610fdf565b506020820151600182019061082a9082610fdf565b506040820151600282019061083f9082610fdf565b50606082015160038201906108549082610fdf565b506080820151600482015560a0820151600582015560c0820151600682019061087d9082610fdf565b505050336001600160a01b03167fdcce003cf2f9d8f1f495ffa1d9b90f69b1537dae81514b968f05f710a7768e168787876040516108bd9392919061109f565b60405180910390a2505050505050565b33600090815260208181526040808320805482518185028101850190935280835260609492939192909184015b828210156106f057838290600052602060002090600702016040518060e001604052908160008201805461092d90610f56565b80601f016020809104026020016040519081016040528092919081815260200182805461095990610f56565b80156109a65780601f1061097b576101008083540402835291602001916109a6565b820191906000526020600020905b81548152906001019060200180831161098957829003601f168201915b505050505081526020016001820180546109bf90610f56565b80601f01602080910402602001604051908101604052809291908181526020018280546109eb90610f56565b8015610a385780601f10610a0d57610100808354040283529160200191610a38565b820191906000526020600020905b815481529060010190602001808311610a1b57829003601f168201915b50505050508152602001600282018054610a5190610f56565b80601f0160208091040260200160405190810160405280929190818152602001828054610a7d90610f56565b8015610aca5780601f10610a9f57610100808354040283529160200191610aca565b820191906000526020600020905b815481529060010190602001808311610aad57829003601f168201915b50505050508152602001600382018054610ae390610f56565b80601f0160208091040260200160405190810160405280929190818152602001828054610b0f90610f56565b8015610b5c5780601f10610b3157610100808354040283529160200191610b5c565b820191906000526020600020905b815481529060010190602001808311610b3f57829003601f168201915b505050505081526020016004820154815260200160058201548152602001600682018054610b8990610f56565b80601f0160208091040260200160405190810160405280929190818152602001828054610bb590610f56565b8015610c025780601f10610bd757610100808354040283529160200191610c02565b820191906000526020600020905b815481529060010190602001808311610be557829003601f168201915b505050505081525050815260200190600101906108fa565b600060208284031215610c2c57600080fd5b5035919050565b6000815180845260005b81811015610c5957602081850181015186830182015201610c3d565b506000602082860101526020601f19601f83011685010191505092915050565b60e081526000610c8c60e083018a610c33565b8281036020840152610c9e818a610c33565b90508281036040840152610cb28189610c33565b90508281036060840152610cc68188610c33565b90508560808401528460a084015282810360c0840152610ce68185610c33565b9a9950505050505050505050565b60006020808301818452808551808352604092508286019150828160051b87010184880160005b83811015610dd357603f19898403018552815160e08151818652610d4182870182610c33565b915050888201518582038a870152610d598282610c33565b9150508782015185820389870152610d718282610c33565b91505060608083015186830382880152610d8b8382610c33565b92505050608080830151818701525060a080830151818701525060c08083015192508582038187015250610dbf8183610c33565b968901969450505090860190600101610d1b565b509098975050505050505050565b634e487b7160e01b600052604160045260246000fd5b600082601f830112610e0857600080fd5b813567ffffffffffffffff80821115610e2357610e23610de1565b604051601f8301601f19908116603f01168101908282118183101715610e4b57610e4b610de1565b81604052838152866020858801011115610e6457600080fd5b836020870160208301376000602085830101528094505050505092915050565b600080600080600060a08688031215610e9c57600080fd5b853567ffffffffffffffff80821115610eb457600080fd5b610ec089838a01610df7565b96506020880135915080821115610ed657600080fd5b610ee289838a01610df7565b95506040880135915080821115610ef857600080fd5b610f0489838a01610df7565b94506060880135915080821115610f1a57600080fd5b610f2689838a01610df7565b93506080880135915080821115610f3c57600080fd5b50610f4988828901610df7565b9150509295509295909350565b600181811c90821680610f6a57607f821691505b602082108103610f8a57634e487b7160e01b600052602260045260246000fd5b50919050565b601f821115610fda57600081815260208120601f850160051c81016020861015610fb75750805b601f850160051c820191505b81811015610fd657828155600101610fc3565b5050505b505050565b815167ffffffffffffffff811115610ff957610ff9610de1565b61100d816110078454610f56565b84610f90565b602080601f831160018114611042576000841561102a5750858301515b600019600386901b1c1916600185901b178555610fd6565b600085815260208120601f198616915b8281101561107157888601518255948401946001909101908401611052565b508582101561108f5787850151600019600388901b60f8161c191681555b5050505050600190811b01905550565b6060815260006110b26060830186610c33565b82810360208401526110c48186610c33565b905082810360408401526110d88185610c33565b969550505050505056fea2646970667358221220b7603c58b426fe734168fa80c306968f7625804d56e41f5a5ba0a15f40c0d32d64736f6c63430008140033",
  "linkReferences": {},
  "deployedLinkReferences": {}
}